Archive member included to satisfy reference by file (symbol)

/opt/stsdk/plugins/fr.ac6.mcu.externaltools.arm-none.linux32_1.7.0.201602291259/tools/compiler/bin/../lib/gcc/arm-none-eabi/5.2.1/../../../../arm-none-eabi/lib/armv7e-m/fpu/libc_nano.a(lib_a-exit.o)
                              /opt/stsdk/plugins/fr.ac6.mcu.externaltools.arm-none.linux32_1.7.0.201602291259/tools/compiler/bin/../lib/gcc/arm-none-eabi/5.2.1/../../../../arm-none-eabi/lib/armv7e-m/fpu/crt0.o (exit)
/opt/stsdk/plugins/fr.ac6.mcu.externaltools.arm-none.linux32_1.7.0.201602291259/tools/compiler/bin/../lib/gcc/arm-none-eabi/5.2.1/../../../../arm-none-eabi/lib/armv7e-m/fpu/libc_nano.a(lib_a-impure.o)
                              /opt/stsdk/plugins/fr.ac6.mcu.externaltools.arm-none.linux32_1.7.0.201602291259/tools/compiler/bin/../lib/gcc/arm-none-eabi/5.2.1/../../../../arm-none-eabi/lib/armv7e-m/fpu/libc_nano.a(lib_a-exit.o) (_global_impure_ptr)
/opt/stsdk/plugins/fr.ac6.mcu.externaltools.arm-none.linux32_1.7.0.201602291259/tools/compiler/bin/../lib/gcc/arm-none-eabi/5.2.1/../../../../arm-none-eabi/lib/armv7e-m/fpu/libc_nano.a(lib_a-init.o)
                              /opt/stsdk/plugins/fr.ac6.mcu.externaltools.arm-none.linux32_1.7.0.201602291259/tools/compiler/bin/../lib/gcc/arm-none-eabi/5.2.1/../../../../arm-none-eabi/lib/armv7e-m/fpu/crt0.o (__libc_init_array)
/opt/stsdk/plugins/fr.ac6.mcu.externaltools.arm-none.linux32_1.7.0.201602291259/tools/compiler/bin/../lib/gcc/arm-none-eabi/5.2.1/../../../../arm-none-eabi/lib/armv7e-m/fpu/libc_nano.a(lib_a-memcpy-stub.o)
                              Middlewares/Third_Party/FreeRTOS/Source/queue.o (memcpy)
/opt/stsdk/plugins/fr.ac6.mcu.externaltools.arm-none.linux32_1.7.0.201602291259/tools/compiler/bin/../lib/gcc/arm-none-eabi/5.2.1/../../../../arm-none-eabi/lib/armv7e-m/fpu/libc_nano.a(lib_a-memset.o)
                              /opt/stsdk/plugins/fr.ac6.mcu.externaltools.arm-none.linux32_1.7.0.201602291259/tools/compiler/bin/../lib/gcc/arm-none-eabi/5.2.1/../../../../arm-none-eabi/lib/armv7e-m/fpu/crt0.o (memset)
/opt/stsdk/plugins/fr.ac6.mcu.externaltools.arm-none.linux32_1.7.0.201602291259/tools/compiler/bin/../lib/gcc/arm-none-eabi/5.2.1/../../../../arm-none-eabi/lib/armv7e-m/fpu/libnosys.a(_exit.o)
                              /opt/stsdk/plugins/fr.ac6.mcu.externaltools.arm-none.linux32_1.7.0.201602291259/tools/compiler/bin/../lib/gcc/arm-none-eabi/5.2.1/../../../../arm-none-eabi/lib/armv7e-m/fpu/libc_nano.a(lib_a-exit.o) (_exit)

Allocating common symbols
Common symbol       size              file

f_event             0x4               Src/main.o
event_1             0x4               Src/main.o
uwTick              0x4               Drivers/STM32F4xx_HAL_Driver/Src/stm32f4xx_hal.o
xQueueRegistry      0x40              Middlewares/Third_Party/FreeRTOS/Source/queue.o
pFlash              0x20              Drivers/STM32F4xx_HAL_Driver/Src/stm32f4xx_hal_flash.o
myTask02Handle      0x4               Src/main.o
myBinarySem01Handle
                    0x4               Src/main.o
myTask01Handle      0x4               Src/main.o

Discarded input sections

 .text          0x00000000        0x0 /opt/stsdk/plugins/fr.ac6.mcu.externaltools.arm-none.linux32_1.7.0.201602291259/tools/compiler/bin/../lib/gcc/arm-none-eabi/5.2.1/armv7e-m/fpu/crti.o
 .data          0x00000000        0x0 /opt/stsdk/plugins/fr.ac6.mcu.externaltools.arm-none.linux32_1.7.0.201602291259/tools/compiler/bin/../lib/gcc/arm-none-eabi/5.2.1/armv7e-m/fpu/crti.o
 .bss           0x00000000        0x0 /opt/stsdk/plugins/fr.ac6.mcu.externaltools.arm-none.linux32_1.7.0.201602291259/tools/compiler/bin/../lib/gcc/arm-none-eabi/5.2.1/armv7e-m/fpu/crti.o
 .data          0x00000000        0x4 /opt/stsdk/plugins/fr.ac6.mcu.externaltools.arm-none.linux32_1.7.0.201602291259/tools/compiler/bin/../lib/gcc/arm-none-eabi/5.2.1/armv7e-m/fpu/crtbegin.o
 .text          0x00000000       0x74 /opt/stsdk/plugins/fr.ac6.mcu.externaltools.arm-none.linux32_1.7.0.201602291259/tools/compiler/bin/../lib/gcc/arm-none-eabi/5.2.1/../../../../arm-none-eabi/lib/armv7e-m/fpu/crt0.o
 .data          0x00000000        0x0 /opt/stsdk/plugins/fr.ac6.mcu.externaltools.arm-none.linux32_1.7.0.201602291259/tools/compiler/bin/../lib/gcc/arm-none-eabi/5.2.1/../../../../arm-none-eabi/lib/armv7e-m/fpu/crt0.o
 .bss           0x00000000        0x0 /opt/stsdk/plugins/fr.ac6.mcu.externaltools.arm-none.linux32_1.7.0.201602291259/tools/compiler/bin/../lib/gcc/arm-none-eabi/5.2.1/../../../../arm-none-eabi/lib/armv7e-m/fpu/crt0.o
 .ARM.extab     0x00000000        0x0 /opt/stsdk/plugins/fr.ac6.mcu.externaltools.arm-none.linux32_1.7.0.201602291259/tools/compiler/bin/../lib/gcc/arm-none-eabi/5.2.1/../../../../arm-none-eabi/lib/armv7e-m/fpu/crt0.o
 .ARM.exidx     0x00000000        0x8 /opt/stsdk/plugins/fr.ac6.mcu.externaltools.arm-none.linux32_1.7.0.201602291259/tools/compiler/bin/../lib/gcc/arm-none-eabi/5.2.1/../../../../arm-none-eabi/lib/armv7e-m/fpu/crt0.o
 .ARM.attributes
                0x00000000       0x20 /opt/stsdk/plugins/fr.ac6.mcu.externaltools.arm-none.linux32_1.7.0.201602291259/tools/compiler/bin/../lib/gcc/arm-none-eabi/5.2.1/../../../../arm-none-eabi/lib/armv7e-m/fpu/crt0.o
 .text          0x00000000       0x14 Drivers/CMSIS/Device/ST/STM32F4xx/Source/Templates/gcc/startup_stm32f407xx.o
 .data          0x00000000        0x0 Drivers/CMSIS/Device/ST/STM32F4xx/Source/Templates/gcc/startup_stm32f407xx.o
 .bss           0x00000000        0x0 Drivers/CMSIS/Device/ST/STM32F4xx/Source/Templates/gcc/startup_stm32f407xx.o
 .group         0x00000000        0x8 Drivers/CMSIS/Device/ST/STM32F4xx/Source/Templates/system_stm32f4xx.o
 .group         0x00000000        0x8 Drivers/CMSIS/Device/ST/STM32F4xx/Source/Templates/system_stm32f4xx.o
 .group         0x00000000        0x8 Drivers/CMSIS/Device/ST/STM32F4xx/Source/Templates/system_stm32f4xx.o
 .group         0x00000000        0x8 Drivers/CMSIS/Device/ST/STM32F4xx/Source/Templates/system_stm32f4xx.o
Memory Configuration

Name             Origin             Length             Attributes
FLASH            0x08000000         0x00100000         xr
RAM              0x20000000         0x00020000         xrw
CCMRAM           0x10000000         0x00010000         rw
*default*        0x00000000         0xffffffff

Linker script and memory map

LOAD /opt/stsdk/plugins/fr.ac6.mcu.externaltools.arm-none.linux32_1.7.0.201602291259/tools/compiler/bin/../lib/gcc/arm-none-eabi/5.2.1/armv7e-m/fpu/crti.o
LOAD /opt/stsdk/plugins/fr.ac6.mcu.externaltools.arm-none.linux32_1.7.0.201602291259/tools/compiler/bin/../lib/gcc/arm-none-eabi/5.2.1/armv7e-m/fpu/crtbegin.o
LOAD /opt/stsdk/plugins/fr.ac6.mcu.externaltools.arm-none.linux32_1.7.0.201602291259/tools/compiler/bin/../lib/gcc/arm-none-eabi/5.2.1/../../../../arm-none-eabi/lib/armv7e-m/fpu/crt0.o
LOAD /opt/stsdk/plugins/fr.ac6.mcu.externaltools.arm-none.linux32_1.7.0.201602291259/tools/compiler/bin/../lib/gcc/arm-none-eabi/5.2.1/../../../../arm-none-eabi/lib/armv7e-m/fpu/libm.a
LOAD Drivers/CMSIS/Device/ST/STM32F4xx/Source/Templates/gcc/startup_stm32f407xx.o
LOAD Drivers/CMSIS/Device/ST/STM32F4xx/Source/Templates/system_stm32f4xx.o
LOAD Drivers/STM32F4xx_HAL_Driver/Src/stm32f4xx_hal.o
LOAD Drivers/STM32F4xx_HAL_Driver/Src/stm32f4xx_hal_cortex.o
LOAD Drivers/STM32F4xx_HAL_Driver/Src/stm32f4xx_hal_dma.o
LOAD Drivers/STM32F4xx_HAL_Driver/Src/stm32f4xx_hal_dma_ex.o
LOAD Drivers/STM32F4xx_HAL_Driver/Src/stm32f4xx_hal_flash.o
LOAD Drivers/STM32F4xx_HAL_Driver/Src/stm32f4xx_hal_flash_ex.o
LOAD Drivers/STM32F4xx_HAL_Driver/Src/stm32f4xx_hal_flash_ramfunc.o
LOAD Drivers/STM32F4xx_HAL_Driver/Src/stm32f4xx_hal_gpio.o
LOAD Drivers/STM32F4xx_HAL_Driver/Src/stm32f4xx_hal_pwr.o
LOAD Drivers/STM32F4xx_HAL_Driver/Src/stm32f4xx_hal_pwr_ex.o
LOAD Drivers/STM32F4xx_HAL_Driver/Src/stm32f4xx_hal_rcc.o
LOAD Drivers/STM32F4xx_HAL_Driver/Src/stm32f4xx_hal_rcc_ex.o
LOAD Drivers/STM32F4xx_HAL_Driver/Src/stm32f4xx_hal_tim.o
LOAD Drivers/STM32F4xx_HAL_Driver/Src/stm32f4xx_hal_tim_ex.o
LOAD Middlewares/Third_Party/FreeRTOS/Source/CMSIS_RTOS/cmsis_os.o
LOAD Middlewares/Third_Party/FreeRTOS/Source/croutine.o
LOAD Middlewares/Third_Party/FreeRTOS/Source/event_groups.o
LOAD Middlewares/Third_Party/FreeRTOS/Source/list.o
LOAD Middlewares/Third_Party/FreeRTOS/Source/queue.o
LOAD Middlewares/Third_Party/FreeRTOS/Source/tasks.o
LOAD Middlewares/Third_Party/FreeRTOS/Source/timers.o
LOAD Middlewares/Third_Party/FreeRTOS/Source/portable/GCC/ARM_CM4F/port.o
LOAD Middlewares/Third_Party/FreeRTOS/Source/portable/MemMang/heap_4.o
LOAD Src/freertos.o
LOAD Src/main.o
LOAD Src/stm32f4xx_hal_msp.o
LOAD Src/stm32f4xx_it.o
START GROUP
LOAD /opt/stsdk/plugins/fr.ac6.mcu.externaltools.arm-none.linux32_1.7.0.201602291259/tools/compiler/bin/../lib/gcc/arm-none-eabi/5.2.1/armv7e-m/fpu/libgcc.a
LOAD /opt/stsdk/plugins/fr.ac6.mcu.externaltools.arm-none.linux32_1.7.0.201602291259/tools/compiler/bin/../lib/gcc/arm-none-eabi/5.2.1/../../../../arm-none-eabi/lib/armv7e-m/fpu/libc_nano.a
END GROUP
START GROUP
LOAD /opt/stsdk/plugins/fr.ac6.mcu.externaltools.arm-none.linux32_1.7.0.201602291259/tools/compiler/bin/../lib/gcc/arm-none-eabi/5.2.1/armv7e-m/fpu/libgcc.a
LOAD /opt/stsdk/plugins/fr.ac6.mcu.externaltools.arm-none.linux32_1.7.0.201602291259/tools/compiler/bin/../lib/gcc/arm-none-eabi/5.2.1/../../../../arm-none-eabi/lib/armv7e-m/fpu/libc_nano.a
LOAD /opt/stsdk/plugins/fr.ac6.mcu.externaltools.arm-none.linux32_1.7.0.201602291259/tools/compiler/bin/../lib/gcc/arm-none-eabi/5.2.1/../../../../arm-none-eabi/lib/armv7e-m/fpu/libnosys.a
END GROUP
START GROUP
LOAD /opt/stsdk/plugins/fr.ac6.mcu.externaltools.arm-none.linux32_1.7.0.201602291259/tools/compiler/bin/../lib/gcc/arm-none-eabi/5.2.1/armv7e-m/fpu/libgcc.a
LOAD /opt/stsdk/plugins/fr.ac6.mcu.externaltools.arm-none.linux32_1.7.0.201602291259/tools/compiler/bin/../lib/gcc/arm-none-eabi/5.2.1/../../../../arm-none-eabi/lib/armv7e-m/fpu/libc_nano.a
LOAD /opt/stsdk/plugins/fr.ac6.mcu.externaltools.arm-none.linux32_1.7.0.201602291259/tools/compiler/bin/../lib/gcc/arm-none-eabi/5.2.1/../../../../arm-none-eabi/lib/armv7e-m/fpu/libnosys.a
END GROUP
LOAD /opt/stsdk/plugins/fr.ac6.mcu.externaltools.arm-none.linux32_1.7.0.201602291259/tools/compiler/bin/../lib/gcc/arm-none-eabi/5.2.1/armv7e-m/fpu/crtend.o
LOAD /opt/stsdk/plugins/fr.ac6.mcu.externaltools.arm-none.linux32_1.7.0.201602291259/tools/compiler/bin/../lib/gcc/arm-none-eabi/5.2.1/armv7e-m/fpu/crtn.o
                0x20020000                _estack = 0x20020000
                0x00000200                _Min_Heap_Size = 0x200
                0x00000400                _Min_Stack_Size = 0x400

.isr_vector     0x08000000      0x188
                0x08000000                . = ALIGN (0x4)
 *(.isr_vector)
 .isr_vector    0x08000000      0x188 Drivers/CMSIS/Device/ST/STM32F4xx/Source/Templates/gcc/startup_stm32f407xx.o
                0x08000000                g_pfnVectors
                0x08000188                . = ALIGN (0x4)

.text           0x08000188     0x2174
                0x08000188                . = ALIGN (0x4)
 *(.text)
 .text          0x08000188       0xa4 /opt/stsdk/plugins/fr.ac6.mcu.externaltools.arm-none.linux32_1.7.0.201602291259/tools/compiler/bin/../lib/gcc/arm-none-eabi/5.2.1/armv7e-m/fpu/crtbegin.o
 *(.text*)
 .text.Reset_Handler
                0x0800022c       0x50 Drivers/CMSIS/Device/ST/STM32F4xx/Source/Templates/gcc/startup_stm32f407xx.o
                0x0800022c                Reset_Handler
 .text.Default_Handler
                0x0800027c        0x2 Drivers/CMSIS/Device/ST/STM32F4xx/Source/Templates/gcc/startup_stm32f407xx.o
                0x0800027c                RTC_Alarm_IRQHandler
                0x0800027c                HASH_RNG_IRQHandler
                0x0800027c                EXTI2_IRQHandler
                0x0800027c                TIM8_CC_IRQHandler
                0x0800027c                DebugMon_Handler
                0x0800027c                TIM1_CC_IRQHandler
                0x0800027c                DMA2_Stream5_IRQHandler
                0x0800027c                HardFault_Handler
                0x0800027c                DMA1_Stream5_IRQHandler
                0x0800027c                PVD_IRQHandler
                0x0800027c                SDIO_IRQHandler
                0x0800027c                TAMP_STAMP_IRQHandler
                0x0800027c                NMI_Handler
                0x0800027c                CAN2_RX1_IRQHandler
                0x0800027c                EXTI3_IRQHandler
                0x0800027c                TIM8_TRG_COM_TIM14_IRQHandler
                0x0800027c                TIM1_UP_TIM10_IRQHandler
                0x0800027c                TIM8_UP_TIM13_IRQHandler
                0x0800027c                I2C3_ER_IRQHandler
                0x0800027c                EXTI0_IRQHandler
                0x0800027c                I2C2_EV_IRQHandler
                0x0800027c                DMA1_Stream2_IRQHandler
                0x0800027c                CAN1_RX0_IRQHandler
                0x0800027c                FPU_IRQHandler
                0x0800027c                OTG_HS_WKUP_IRQHandler
                0x0800027c                UsageFault_Handler
                0x0800027c                CAN2_SCE_IRQHandler
                0x0800027c                DMA2_Stream2_IRQHandler
                0x0800027c                SPI1_IRQHandler
                0x0800027c                TIM6_DAC_IRQHandler
                0x0800027c                TIM1_BRK_TIM9_IRQHandler
                0x0800027c                DCMI_IRQHandler
                0x0800027c                CAN2_RX0_IRQHandler
                0x0800027c                DMA2_Stream3_IRQHandler
                0x0800027c                USART6_IRQHandler
                0x0800027c                USART3_IRQHandler
                0x0800027c                CAN1_RX1_IRQHandler
                0x0800027c                UART5_IRQHandler
                0x0800027c                DMA2_Stream0_IRQHandler
                0x0800027c                TIM4_IRQHandler
                0x0800027c                I2C1_EV_IRQHandler
                0x0800027c                DMA1_Stream6_IRQHandler
                0x0800027c                DMA1_Stream1_IRQHandler
                0x0800027c                UART4_IRQHandler
                0x0800027c                TIM3_IRQHandler
                0x0800027c                RCC_IRQHandler
                0x0800027c                TIM8_BRK_TIM12_IRQHandler
                0x0800027c                Default_Handler
                0x0800027c                EXTI15_10_IRQHandler
                0x0800027c                ADC_IRQHandler
                0x0800027c                DMA1_Stream7_IRQHandler
                0x0800027c                TIM7_IRQHandler
                0x0800027c                CAN2_TX_IRQHandler
                0x0800027c                TIM5_IRQHandler
                0x0800027c                DMA2_Stream7_IRQHandler
                0x0800027c                I2C3_EV_IRQHandler
                0x0800027c                EXTI9_5_IRQHandler
                0x0800027c                RTC_WKUP_IRQHandler
                0x0800027c                ETH_WKUP_IRQHandler
                0x0800027c                SPI2_IRQHandler
                0x0800027c                OTG_HS_EP1_IN_IRQHandler
                0x0800027c                MemManage_Handler
                0x0800027c                DMA1_Stream0_IRQHandler
                0x0800027c                CAN1_TX_IRQHandler
                0x0800027c                EXTI4_IRQHandler
                0x0800027c                FSMC_IRQHandler
                0x0800027c                ETH_IRQHandler
                0x0800027c                OTG_HS_EP1_OUT_IRQHandler
                0x0800027c                WWDG_IRQHandler
                0x0800027c                TIM2_IRQHandler
                0x0800027c                OTG_FS_WKUP_IRQHandler
                0x0800027c                TIM1_TRG_COM_TIM11_IRQHandler
                0x0800027c                OTG_HS_IRQHandler
                0x0800027c                EXTI1_IRQHandler
                0x0800027c                USART2_IRQHandler
                0x0800027c                I2C2_ER_IRQHandler
                0x0800027c                DMA2_Stream1_IRQHandler
                0x0800027c                CAN1_SCE_IRQHandler
                0x0800027c                FLASH_IRQHandler
                0x0800027c                DMA2_Stream4_IRQHandler
                0x0800027c                BusFault_Handler
                0x0800027c                USART1_IRQHandler
                0x0800027c                OTG_FS_IRQHandler
                0x0800027c                SPI3_IRQHandler
                0x0800027c                DMA1_Stream4_IRQHandler
                0x0800027c                I2C1_ER_IRQHandler
                0x0800027c                DMA2_Stream6_IRQHandler
                0x0800027c                DMA1_Stream3_IRQHandler
 *fill*         0x0800027e        0x2 
 .text.SystemInit
                0x08000280       0x4c Drivers/CMSIS/Device/ST/STM32F4xx/Source/Templates/system_stm32f4xx.o
                0x08000280                SystemInit
 .text.HAL_InitTick
                0x080002cc       0x28 Drivers/STM32F4xx_HAL_Driver/Src/stm32f4xx_hal.o
                0x080002cc                HAL_InitTick
 .text.HAL_Init
                0x080002f4       0x34 Drivers/STM32F4xx_HAL_Driver/Src/stm32f4xx_hal.o
                0x080002f4                HAL_Init
 .text.HAL_IncTick
                0x08000328       0x10 Drivers/STM32F4xx_HAL_Driver/Src/stm32f4xx_hal.o
                0x08000328                HAL_IncTick
 .text.HAL_GetTick
                0x08000338        0xc Drivers/STM32F4xx_HAL_Driver/Src/stm32f4xx_hal.o
                0x08000338                HAL_GetTick
 .text.HAL_NVIC_SetPriorityGrouping
                0x08000344       0x24 Drivers/STM32F4xx_HAL_Driver/Src/stm32f4xx_hal_cortex.o
                0x08000344                HAL_NVIC_SetPriorityGrouping
 .text.HAL_NVIC_SetPriority
                0x08000368       0x68 Drivers/STM32F4xx_HAL_Driver/Src/stm32f4xx_hal_cortex.o
                0x08000368                HAL_NVIC_SetPriority
 .text.HAL_SYSTICK_Config
                0x080003d0       0x2c Drivers/STM32F4xx_HAL_Driver/Src/stm32f4xx_hal_cortex.o
                0x080003d0                HAL_SYSTICK_Config
 .text.HAL_SYSTICK_CLKSourceConfig
                0x080003fc       0x18 Drivers/STM32F4xx_HAL_Driver/Src/stm32f4xx_hal_cortex.o
                0x080003fc                HAL_SYSTICK_CLKSourceConfig
 .text.HAL_GPIO_Init
                0x08000414      0x1c0 Drivers/STM32F4xx_HAL_Driver/Src/stm32f4xx_hal_gpio.o
                0x08000414                HAL_GPIO_Init
 .text.HAL_GPIO_ReadPin
                0x080005d4        0xc Drivers/STM32F4xx_HAL_Driver/Src/stm32f4xx_hal_gpio.o
                0x080005d4                HAL_GPIO_ReadPin
 .text.HAL_GPIO_WritePin
                0x080005e0        0x8 Drivers/STM32F4xx_HAL_Driver/Src/stm32f4xx_hal_gpio.o
                0x080005e0                HAL_GPIO_WritePin
 .text.HAL_RCC_OscConfig
                0x080005e8      0x2d0 Drivers/STM32F4xx_HAL_Driver/Src/stm32f4xx_hal_rcc.o
                0x080005e8                HAL_RCC_OscConfig
 .text.HAL_RCC_GetSysClockFreq
                0x080008b8       0x7c Drivers/STM32F4xx_HAL_Driver/Src/stm32f4xx_hal_rcc.o
                0x080008b8                HAL_RCC_GetSysClockFreq
 .text.HAL_RCC_ClockConfig
                0x08000934      0x168 Drivers/STM32F4xx_HAL_Driver/Src/stm32f4xx_hal_rcc.o
                0x08000934                HAL_RCC_ClockConfig
 .text.HAL_RCC_GetHCLKFreq
                0x08000a9c        0xc Drivers/STM32F4xx_HAL_Driver/Src/stm32f4xx_hal_rcc.o
                0x08000a9c                HAL_RCC_GetHCLKFreq
 .text.osKernelStart
                0x08000aa8        0xa Middlewares/Third_Party/FreeRTOS/Source/CMSIS_RTOS/cmsis_os.o
                0x08000aa8                osKernelStart
 .text.osThreadCreate
                0x08000ab2       0x38 Middlewares/Third_Party/FreeRTOS/Source/CMSIS_RTOS/cmsis_os.o
                0x08000ab2                osThreadCreate
 .text.osDelay  0x08000aea       0x10 Middlewares/Third_Party/FreeRTOS/Source/CMSIS_RTOS/cmsis_os.o
                0x08000aea                osDelay
 .text.osSemaphoreCreate
                0x08000afa       0x28 Middlewares/Third_Party/FreeRTOS/Source/CMSIS_RTOS/cmsis_os.o
                0x08000afa                osSemaphoreCreate
 .text.osSystickHandler
                0x08000b22       0x14 Middlewares/Third_Party/FreeRTOS/Source/CMSIS_RTOS/cmsis_os.o
                0x08000b22                osSystickHandler
 .text.xEventGroupCreate
                0x08000b36       0x1a Middlewares/Third_Party/FreeRTOS/Source/event_groups.o
                0x08000b36                xEventGroupCreate
 .text.xEventGroupWaitBits
                0x08000b50      0x114 Middlewares/Third_Party/FreeRTOS/Source/event_groups.o
                0x08000b50                xEventGroupWaitBits
 .text.xEventGroupSetBits
                0x08000c64       0x82 Middlewares/Third_Party/FreeRTOS/Source/event_groups.o
                0x08000c64                xEventGroupSetBits
 .text.vListInitialise
                0x08000ce6       0x16 Middlewares/Third_Party/FreeRTOS/Source/list.o
                0x08000ce6                vListInitialise
 .text.vListInitialiseItem
                0x08000cfc        0x6 Middlewares/Third_Party/FreeRTOS/Source/list.o
                0x08000cfc                vListInitialiseItem
 .text.vListInsertEnd
                0x08000d02       0x18 Middlewares/Third_Party/FreeRTOS/Source/list.o
                0x08000d02                vListInsertEnd
 .text.vListInsert
                0x08000d1a       0x30 Middlewares/Third_Party/FreeRTOS/Source/list.o
                0x08000d1a                vListInsert
 .text.uxListRemove
                0x08000d4a       0x20 Middlewares/Third_Party/FreeRTOS/Source/list.o
                0x08000d4a                uxListRemove
 .text.unlikely.prvCopyDataToQueue
                0x08000d6a       0x6a Middlewares/Third_Party/FreeRTOS/Source/queue.o
 .text.prvUnlockQueue
                0x08000dd4       0x68 Middlewares/Third_Party/FreeRTOS/Source/queue.o
 .text.xQueueGenericReset
                0x08000e3c       0x80 Middlewares/Third_Party/FreeRTOS/Source/queue.o
                0x08000e3c                xQueueGenericReset
 .text.xQueueGenericCreate
                0x08000ebc       0x64 Middlewares/Third_Party/FreeRTOS/Source/queue.o
                0x08000ebc                xQueueGenericCreate
 .text.xQueueGenericSend
                0x08000f20      0x164 Middlewares/Third_Party/FreeRTOS/Source/queue.o
                0x08000f20                xQueueGenericSend
 .text.prvResetNextTaskUnblockTime
                0x08001084       0x20 Middlewares/Third_Party/FreeRTOS/Source/tasks.o
 .text.prvAddCurrentTaskToDelayedList
                0x080010a4       0x38 Middlewares/Third_Party/FreeRTOS/Source/tasks.o
 .text.xTaskGenericCreate.part.5
                0x080010dc      0x1a0 Middlewares/Third_Party/FreeRTOS/Source/tasks.o
 .text.vTaskSetTimeOutState.part.7
                0x0800127c       0x12 Middlewares/Third_Party/FreeRTOS/Source/tasks.o
 .text.xTaskGenericCreate
                0x0800128e       0x3c Middlewares/Third_Party/FreeRTOS/Source/tasks.o
                0x0800128e                xTaskGenericCreate
 *fill*         0x080012ca        0x2 
 .text.vTaskStartScheduler
                0x080012cc       0x68 Middlewares/Third_Party/FreeRTOS/Source/tasks.o
                0x080012cc                vTaskStartScheduler
 .text.vTaskSuspendAll
                0x08001334       0x14 Middlewares/Third_Party/FreeRTOS/Source/tasks.o
                0x08001334                vTaskSuspendAll
 .text.xTaskIncrementTick
                0x08001348       0xf4 Middlewares/Third_Party/FreeRTOS/Source/tasks.o
                0x08001348                xTaskIncrementTick
 .text.xTaskResumeAll
                0x0800143c       0xe8 Middlewares/Third_Party/FreeRTOS/Source/tasks.o
                0x0800143c                xTaskResumeAll
 .text.vTaskDelay
                0x08001524       0x70 Middlewares/Third_Party/FreeRTOS/Source/tasks.o
                0x08001524                vTaskDelay
 .text.prvIdleTask
                0x08001594       0x70 Middlewares/Third_Party/FreeRTOS/Source/tasks.o
 .text.vTaskSwitchContext
                0x08001604       0x68 Middlewares/Third_Party/FreeRTOS/Source/tasks.o
                0x08001604                vTaskSwitchContext
 .text.vTaskPlaceOnEventList
                0x0800166c       0x68 Middlewares/Third_Party/FreeRTOS/Source/tasks.o
                0x0800166c                vTaskPlaceOnEventList
 .text.vTaskPlaceOnUnorderedEventList
                0x080016d4       0x88 Middlewares/Third_Party/FreeRTOS/Source/tasks.o
                0x080016d4                vTaskPlaceOnUnorderedEventList
 .text.xTaskRemoveFromEventList
                0x0800175c       0x78 Middlewares/Third_Party/FreeRTOS/Source/tasks.o
                0x0800175c                xTaskRemoveFromEventList
 .text.xTaskRemoveFromUnorderedEventList
                0x080017d4       0x80 Middlewares/Third_Party/FreeRTOS/Source/tasks.o
                0x080017d4                xTaskRemoveFromUnorderedEventList
 .text.vTaskSetTimeOutState
                0x08001854       0x1c Middlewares/Third_Party/FreeRTOS/Source/tasks.o
                0x08001854                vTaskSetTimeOutState
 .text.xTaskCheckForTimeOut
                0x08001870       0x70 Middlewares/Third_Party/FreeRTOS/Source/tasks.o
                0x08001870                xTaskCheckForTimeOut
 .text.vTaskMissedYield
                0x080018e0       0x10 Middlewares/Third_Party/FreeRTOS/Source/tasks.o
                0x080018e0                vTaskMissedYield
 .text.xTaskGetSchedulerState
                0x080018f0       0x20 Middlewares/Third_Party/FreeRTOS/Source/tasks.o
                0x080018f0                xTaskGetSchedulerState
 .text.xTaskPriorityDisinherit
                0x08001910       0xa4 Middlewares/Third_Party/FreeRTOS/Source/tasks.o
                0x08001910                xTaskPriorityDisinherit
 .text.uxTaskResetEventItemValue
                0x080019b4       0x18 Middlewares/Third_Party/FreeRTOS/Source/tasks.o
                0x080019b4                uxTaskResetEventItemValue
 .text.prvTaskExitError
                0x080019cc       0x30 Middlewares/Third_Party/FreeRTOS/Source/portable/GCC/ARM_CM4F/port.o
 .text.prvPortStartFirstTask
                0x080019fc       0x20 Middlewares/Third_Party/FreeRTOS/Source/portable/GCC/ARM_CM4F/port.o
 .text.vPortEnableVFP
                0x08001a1c       0x14 Middlewares/Third_Party/FreeRTOS/Source/portable/GCC/ARM_CM4F/port.o
 .text.pxPortInitialiseStack
                0x08001a30       0x24 Middlewares/Third_Party/FreeRTOS/Source/portable/GCC/ARM_CM4F/port.o
                0x08001a30                pxPortInitialiseStack
 .text.SVC_Handler
                0x08001a54       0x20 Middlewares/Third_Party/FreeRTOS/Source/portable/GCC/ARM_CM4F/port.o
                0x08001a54                SVC_Handler
 .text.vPortEnterCritical
                0x08001a74       0x44 Middlewares/Third_Party/FreeRTOS/Source/portable/GCC/ARM_CM4F/port.o
                0x08001a74                vPortEnterCritical
 .text.vPortExitCritical
                0x08001ab8       0x28 Middlewares/Third_Party/FreeRTOS/Source/portable/GCC/ARM_CM4F/port.o
                0x08001ab8                vPortExitCritical
 .text.PendSV_Handler
                0x08001ae0       0x60 Middlewares/Third_Party/FreeRTOS/Source/portable/GCC/ARM_CM4F/port.o
                0x08001ae0                PendSV_Handler
 .text.xPortSysTickHandler
                0x08001b40       0x30 Middlewares/Third_Party/FreeRTOS/Source/portable/GCC/ARM_CM4F/port.o
                0x08001b40                xPortSysTickHandler
 .text.vPortSetupTimerInterrupt
                0x08001b70       0x28 Middlewares/Third_Party/FreeRTOS/Source/portable/GCC/ARM_CM4F/port.o
                0x08001b70                vPortSetupTimerInterrupt
 .text.xPortStartScheduler
                0x08001b98       0xe4 Middlewares/Third_Party/FreeRTOS/Source/portable/GCC/ARM_CM4F/port.o
                0x08001b98                xPortStartScheduler
 .text.unlikely.prvInsertBlockIntoFreeList
                0x08001c7c       0x44 Middlewares/Third_Party/FreeRTOS/Source/portable/MemMang/heap_4.o
 .text.pvPortMalloc
                0x08001cc0      0x120 Middlewares/Third_Party/FreeRTOS/Source/portable/MemMang/heap_4.o
                0x08001cc0                pvPortMalloc
 .text.vPortFree
                0x08001de0       0x70 Middlewares/Third_Party/FreeRTOS/Source/portable/MemMang/heap_4.o
                0x08001de0                vPortFree
 .text.StartTask01
                0x08001e50       0x58 Src/main.o
                0x08001e50                StartTask01
 .text.StartTask02
                0x08001ea8       0x48 Src/main.o
                0x08001ea8                StartTask02
 .text.SystemClock_Config
                0x08001ef0       0xac Src/main.o
                0x08001ef0                SystemClock_Config
 .text.startup.main
                0x08001f9c      0x264 Src/main.o
                0x08001f9c                main
 .text.HAL_MspInit
                0x08002200       0x60 Src/stm32f4xx_hal_msp.o
                0x08002200                HAL_MspInit
 .text.SysTick_Handler
                0x08002260        0xe Src/stm32f4xx_it.o
                0x08002260                SysTick_Handler
 *fill*         0x0800226e        0x2 
 .text.__libc_init_array
                0x08002270       0x4c /opt/stsdk/plugins/fr.ac6.mcu.externaltools.arm-none.linux32_1.7.0.201602291259/tools/compiler/bin/../lib/gcc/arm-none-eabi/5.2.1/../../../../arm-none-eabi/lib/armv7e-m/fpu/libc_nano.a(lib_a-init.o)
                0x08002270                __libc_init_array
 .text.memcpy   0x080022bc       0x16 /opt/stsdk/plugins/fr.ac6.mcu.externaltools.arm-none.linux32_1.7.0.201602291259/tools/compiler/bin/../lib/gcc/arm-none-eabi/5.2.1/../../../../arm-none-eabi/lib/armv7e-m/fpu/libc_nano.a(lib_a-memcpy-stub.o)
                0x080022bc                memcpy
 .text.memset   0x080022d2       0x10 /opt/stsdk/plugins/fr.ac6.mcu.externaltools.arm-none.linux32_1.7.0.201602291259/tools/compiler/bin/../lib/gcc/arm-none-eabi/5.2.1/../../../../arm-none-eabi/lib/armv7e-m/fpu/libc_nano.a(lib_a-memset.o)
                0x080022d2                memset
 *(.glue_7)
 .glue_7        0x080022e2        0x0 linker stubs
 *(.glue_7t)
 .glue_7t       0x080022e2        0x0 linker stubs
 *(.eh_frame)
 *fill*         0x080022e2        0x2 
 .eh_frame      0x080022e4        0x0 /opt/stsdk/plugins/fr.ac6.mcu.externaltools.arm-none.linux32_1.7.0.201602291259/tools/compiler/bin/../lib/gcc/arm-none-eabi/5.2.1/armv7e-m/fpu/crtbegin.o
 *(.init)
 .init          0x080022e4        0x4 /opt/stsdk/plugins/fr.ac6.mcu.externaltools.arm-none.linux32_1.7.0.201602291259/tools/compiler/bin/../lib/gcc/arm-none-eabi/5.2.1/armv7e-m/fpu/crti.o
                0x080022e4                _init
 .init          0x080022e8        0x8 /opt/stsdk/plugins/fr.ac6.mcu.externaltools.arm-none.linux32_1.7.0.201602291259/tools/compiler/bin/../lib/gcc/arm-none-eabi/5.2.1/armv7e-m/fpu/crtn.o
 *(.fini)
 .fini          0x080022f0        0x4 /opt/stsdk/plugins/fr.ac6.mcu.externaltools.arm-none.linux32_1.7.0.201602291259/tools/compiler/bin/../lib/gcc/arm-none-eabi/5.2.1/armv7e-m/fpu/crti.o
                0x080022f0                _fini
 .fini          0x080022f4        0x8 /opt/stsdk/plugins/fr.ac6.mcu.externaltools.arm-none.linux32_1.7.0.201602291259/tools/compiler/bin/../lib/gcc/arm-none-eabi/5.2.1/armv7e-m/fpu/crtn.o
                0x080022fc                . = ALIGN (0x4)
                0x080022fc                _etext = .

.vfp11_veneer   0x080022fc        0x0
 .vfp11_veneer  0x080022fc        0x0 linker stubs

.v4_bx          0x080022fc        0x0
 .v4_bx         0x080022fc        0x0 linker stubs

.iplt           0x080022fc        0x0
 .iplt          0x080022fc        0x0 /opt/stsdk/plugins/fr.ac6.mcu.externaltools.arm-none.linux32_1.7.0.201602291259/tools/compiler/bin/../lib/gcc/arm-none-eabi/5.2.1/armv7e-m/fpu/crtbegin.o

.rodata         0x080022fc       0x50
                0x080022fc                . = ALIGN (0x4)
 *(.rodata)
 .rodata        0x080022fc       0x10 Drivers/STM32F4xx_HAL_Driver/Src/stm32f4xx_hal_rcc.o
                0x080022fc                APBAHBPrescTable
 .rodata        0x0800230c       0x28 Src/main.o
 *(.rodata*)
 .rodata.str1.1
                0x08002334        0x5 Middlewares/Third_Party/FreeRTOS/Source/tasks.o
 .rodata.str1.1
                0x08002339       0x12 Src/main.o
                0x0800234c                . = ALIGN (0x4)
 *fill*         0x0800234b        0x1 

.rel.dyn        0x0800234c        0x0
 .rel.iplt      0x0800234c        0x0 /opt/stsdk/plugins/fr.ac6.mcu.externaltools.arm-none.linux32_1.7.0.201602291259/tools/compiler/bin/../lib/gcc/arm-none-eabi/5.2.1/armv7e-m/fpu/crtbegin.o

.ARM.extab
 *(.ARM.extab* .gnu.linkonce.armextab.*)

.ARM            0x0800234c        0x0
                0x0800234c                __exidx_start = .
 *(.ARM.exidx*)
                0x0800234c                __exidx_end = .

.preinit_array  0x0800234c        0x0
                0x0800234c                PROVIDE (__preinit_array_start, .)
 *(.preinit_array*)
                0x0800234c                PROVIDE (__preinit_array_end, .)

.init_array     0x0800234c        0x4
                0x0800234c                PROVIDE (__init_array_start, .)
 *(SORT(.init_array.*))
 *(.init_array*)
 .init_array    0x0800234c        0x4 /opt/stsdk/plugins/fr.ac6.mcu.externaltools.arm-none.linux32_1.7.0.201602291259/tools/compiler/bin/../lib/gcc/arm-none-eabi/5.2.1/armv7e-m/fpu/crtbegin.o
                0x08002350                PROVIDE (__init_array_end, .)

.fini_array     0x08002350        0x4
                [!provide]                PROVIDE (__fini_array_start, .)
 *(SORT(.fini_array.*))
 *(.fini_array*)
 .fini_array    0x08002350        0x4 /opt/stsdk/plugins/fr.ac6.mcu.externaltools.arm-none.linux32_1.7.0.201602291259/tools/compiler/bin/../lib/gcc/arm-none-eabi/5.2.1/armv7e-m/fpu/crtbegin.o
                [!provide]                PROVIDE (__fini_array_end, .)
                0x08002354                _sidata = LOADADDR (.data)

.data           0x20000000        0x8 load address 0x08002354
                0x20000000                . = ALIGN (0x4)
                0x20000000                _sdata = .
 *(.data)
 .data          0x20000000        0x4 Drivers/CMSIS/Device/ST/STM32F4xx/Source/Templates/system_stm32f4xx.o
                0x20000000                SystemCoreClock
 .data          0x20000004        0x4 Middlewares/Third_Party/FreeRTOS/Source/portable/GCC/ARM_CM4F/port.o
 *(.data*)
                0x20000008                . = ALIGN (0x4)
                0x20000008                _edata = .
                0x0800235c                _siccmram = LOADADDR (.ccmram)

.jcr            0x20000008        0x0 load address 0x0800235c
 .jcr           0x20000008        0x0 /opt/stsdk/plugins/fr.ac6.mcu.externaltools.arm-none.linux32_1.7.0.201602291259/tools/compiler/bin/../lib/gcc/arm-none-eabi/5.2.1/armv7e-m/fpu/crtbegin.o

.tm_clone_table
                0x20000008        0x0 load address 0x0800235c
 .tm_clone_table
                0x20000008        0x0 /opt/stsdk/plugins/fr.ac6.mcu.externaltools.arm-none.linux32_1.7.0.201602291259/tools/compiler/bin/../lib/gcc/arm-none-eabi/5.2.1/armv7e-m/fpu/crtbegin.o
 .tm_clone_table
                0x20000008        0x0 /opt/stsdk/plugins/fr.ac6.mcu.externaltools.arm-none.linux32_1.7.0.201602291259/tools/compiler/bin/../lib/gcc/arm-none-eabi/5.2.1/armv7e-m/fpu/crtend.o

.igot.plt       0x20000008        0x0 load address 0x0800235c
 .igot.plt      0x20000008        0x0 /opt/stsdk/plugins/fr.ac6.mcu.externaltools.arm-none.linux32_1.7.0.201602291259/tools/compiler/bin/../lib/gcc/arm-none-eabi/5.2.1/armv7e-m/fpu/crtbegin.o

.ccmram         0x10000000        0x0 load address 0x0800235c
                0x10000000                . = ALIGN (0x4)
                0x10000000                _sccmram = .
 *(.ccmram)
 *(.ccmram*)
                0x10000000                . = ALIGN (0x4)
                0x10000000                _eccmram = .
                0x10000000                . = ALIGN (0x4)

.bss            0x20000008     0x3d7c
                0x20000008                _sbss = .
                0x20000008                __bss_start__ = _sbss
 *(.bss)
 .bss           0x20000008       0x1c /opt/stsdk/plugins/fr.ac6.mcu.externaltools.arm-none.linux32_1.7.0.201602291259/tools/compiler/bin/../lib/gcc/arm-none-eabi/5.2.1/armv7e-m/fpu/crtbegin.o
 .bss           0x20000024      0x128 Middlewares/Third_Party/FreeRTOS/Source/tasks.o
                0x2000002c                pxCurrentTCB
 .bss           0x2000014c        0x8 Middlewares/Third_Party/FreeRTOS/Source/portable/GCC/ARM_CM4F/port.o
 .bss           0x20000154     0x3c18 Middlewares/Third_Party/FreeRTOS/Source/portable/MemMang/heap_4.o
 *(.bss*)
 *(COMMON)
 COMMON         0x20003d6c        0x4 Drivers/STM32F4xx_HAL_Driver/Src/stm32f4xx_hal.o
                0x20003d6c                uwTick
 COMMON         0x20003d70       0x14 Src/main.o
                0x20003d70                f_event
                0x20003d74                event_1
                0x20003d78                myTask02Handle
                0x20003d7c                myBinarySem01Handle
                0x20003d80                myTask01Handle
                0x20003d84                . = ALIGN (0x4)
                0x20003d84                _ebss = .
                0x20003d84                __bss_end__ = _ebss

._user_heap_stack
                0x20003d84      0x604
                0x20003d88                . = ALIGN (0x8)
 *fill*         0x20003d84        0x4 
                [!provide]                PROVIDE (end, .)
                [!provide]                PROVIDE (_end, .)
                0x20003f88                . = (. + _Min_Heap_Size)
 *fill*         0x20003d88      0x200 
                0x20004388                . = (. + _Min_Stack_Size)
 *fill*         0x20003f88      0x400 
                0x20004388                . = ALIGN (0x8)

/DISCARD/
 libc.a(*)
 libm.a(*)
 libgcc.a(*)

.ARM.attributes
                0x00000000       0x30
 *(.ARM.attributes)
 .ARM.attributes
                0x00000000       0x22 /opt/stsdk/plugins/fr.ac6.mcu.externaltools.arm-none.linux32_1.7.0.201602291259/tools/compiler/bin/../lib/gcc/arm-none-eabi/5.2.1/armv7e-m/fpu/crti.o
 .ARM.attributes
                0x00000022       0x34 /opt/stsdk/plugins/fr.ac6.mcu.externaltools.arm-none.linux32_1.7.0.201602291259/tools/compiler/bin/../lib/gcc/arm-none-eabi/5.2.1/armv7e-m/fpu/crtbegin.o
 .ARM.attributes
                0x00000056       0x21 Drivers/CMSIS/Device/ST/STM32F4xx/Source/Templates/gcc/startup_stm32f407xx.o
 .ARM.attributes
                0x00000077       0x39 Drivers/CMSIS/Device/ST/STM32F4xx/Source/Templates/system_stm32f4xx.o
 .ARM.attributes
                0x000000b0       0x39 Drivers/STM32F4xx_HAL_Driver/Src/stm32f4xx_hal.o
 .ARM.attributes
                0x000000e9       0x39 Drivers/STM32F4xx_HAL_Driver/Src/stm32f4xx_hal_cortex.o
 .ARM.attributes
                0x00000122       0x39 Drivers/STM32F4xx_HAL_Driver/Src/stm32f4xx_hal_gpio.o
 .ARM.attributes
                0x0000015b       0x39 Drivers/STM32F4xx_HAL_Driver/Src/stm32f4xx_hal_rcc.o
 .ARM.attributes
                0x00000194       0x39 Middlewares/Third_Party/FreeRTOS/Source/CMSIS_RTOS/cmsis_os.o
 .ARM.attributes
                0x000001cd       0x39 Middlewares/Third_Party/FreeRTOS/Source/event_groups.o
 .ARM.attributes
                0x00000206       0x39 Middlewares/Third_Party/FreeRTOS/Source/list.o
 .ARM.attributes
                0x0000023f       0x39 Middlewares/Third_Party/FreeRTOS/Source/queue.o
 .ARM.attributes
                0x00000278       0x39 Middlewares/Third_Party/FreeRTOS/Source/tasks.o
 .ARM.attributes
                0x000002b1       0x39 Middlewares/Third_Party/FreeRTOS/Source/portable/GCC/ARM_CM4F/port.o
 .ARM.attributes
                0x000002ea       0x39 Middlewares/Third_Party/FreeRTOS/Source/portable/MemMang/heap_4.o
 .ARM.attributes
                0x00000323       0x39 Src/main.o
 .ARM.attributes
                0x0000035c       0x39 Src/stm32f4xx_hal_msp.o
 .ARM.attributes
                0x00000395       0x39 Src/stm32f4xx_it.o
 .ARM.attributes
                0x000003ce       0x34 /opt/stsdk/plugins/fr.ac6.mcu.externaltools.arm-none.linux32_1.7.0.201602291259/tools/compiler/bin/../lib/gcc/arm-none-eabi/5.2.1/../../../../arm-none-eabi/lib/armv7e-m/fpu/libc_nano.a(lib_a-init.o)
 .ARM.attributes
                0x00000402       0x34 /opt/stsdk/plugins/fr.ac6.mcu.externaltools.arm-none.linux32_1.7.0.201602291259/tools/compiler/bin/../lib/gcc/arm-none-eabi/5.2.1/../../../../arm-none-eabi/lib/armv7e-m/fpu/libc_nano.a(lib_a-memcpy-stub.o)
 .ARM.attributes
                0x00000436       0x34 /opt/stsdk/plugins/fr.ac6.mcu.externaltools.arm-none.linux32_1.7.0.201602291259/tools/compiler/bin/../lib/gcc/arm-none-eabi/5.2.1/../../../../arm-none-eabi/lib/armv7e-m/fpu/libc_nano.a(lib_a-memset.o)
 .ARM.attributes
                0x0000046a       0x34 /opt/stsdk/plugins/fr.ac6.mcu.externaltools.arm-none.linux32_1.7.0.201602291259/tools/compiler/bin/../lib/gcc/arm-none-eabi/5.2.1/armv7e-m/fpu/crtend.o
 .ARM.attributes
                0x0000049e       0x22 /opt/stsdk/plugins/fr.ac6.mcu.externaltools.arm-none.linux32_1.7.0.201602291259/tools/compiler/bin/../lib/gcc/arm-none-eabi/5.2.1/armv7e-m/fpu/crtn.o
OUTPUT(stm32f4.elf elf32-littlearm)

.debug_line     0x00000000     0x7bb4
 .debug_line    0x00000000       0xae Drivers/CMSIS/Device/ST/STM32F4xx/Source/Templates/gcc/startup_stm32f407xx.o
 .debug_line    0x000000ae      0x6fe Drivers/CMSIS/Device/ST/STM32F4xx/Source/Templates/system_stm32f4xx.o
 .debug_line    0x000007ac      0x82e Drivers/STM32F4xx_HAL_Driver/Src/stm32f4xx_hal.o
 .debug_line    0x00000fda      0x8a2 Drivers/STM32F4xx_HAL_Driver/Src/stm32f4xx_hal_cortex.o
 .debug_line    0x0000187c      0x874 Drivers/STM32F4xx_HAL_Driver/Src/stm32f4xx_hal_gpio.o
 .debug_line    0x000020f0      0x9af Drivers/STM32F4xx_HAL_Driver/Src/stm32f4xx_hal_rcc.o
 .debug_line    0x00002a9f      0xa68 Middlewares/Third_Party/FreeRTOS/Source/CMSIS_RTOS/cmsis_os.o
 .debug_line    0x00003507      0x692 Middlewares/Third_Party/FreeRTOS/Source/event_groups.o
 .debug_line    0x00003b99      0x4fe Middlewares/Third_Party/FreeRTOS/Source/list.o
 .debug_line    0x00004097      0x98e Middlewares/Third_Party/FreeRTOS/Source/queue.o
 .debug_line    0x00004a25      0xdaa Middlewares/Third_Party/FreeRTOS/Source/tasks.o
 .debug_line    0x000057cf      0x589 Middlewares/Third_Party/FreeRTOS/Source/portable/GCC/ARM_CM4F/port.o
 .debug_line    0x00005d58      0x5b7 Middlewares/Third_Party/FreeRTOS/Source/portable/MemMang/heap_4.o
 .debug_line    0x0000630f      0x99e Src/main.o
 .debug_line    0x00006cad      0x6a6 Src/stm32f4xx_hal_msp.o
 .debug_line    0x00007353      0x861 Src/stm32f4xx_it.o

.debug_info     0x00000000     0xb5a9
 .debug_info    0x00000000       0x91 Drivers/CMSIS/Device/ST/STM32F4xx/Source/Templates/gcc/startup_stm32f407xx.o
 .debug_info    0x00000091      0x4b0 Drivers/CMSIS/Device/ST/STM32F4xx/Source/Templates/system_stm32f4xx.o
 .debug_info    0x00000541      0x8e0 Drivers/STM32F4xx_HAL_Driver/Src/stm32f4xx_hal.o
 .debug_info    0x00000e21      0xe6a Drivers/STM32F4xx_HAL_Driver/Src/stm32f4xx_hal_cortex.o
 .debug_info    0x00001c8b      0x721 Drivers/STM32F4xx_HAL_Driver/Src/stm32f4xx_hal_gpio.o
 .debug_info    0x000023ac      0xc82 Drivers/STM32F4xx_HAL_Driver/Src/stm32f4xx_hal_rcc.o
 .debug_info    0x0000302e     0x1ae7 Middlewares/Third_Party/FreeRTOS/Source/CMSIS_RTOS/cmsis_os.o
 .debug_info    0x00004b15      0xbcc Middlewares/Third_Party/FreeRTOS/Source/event_groups.o
 .debug_info    0x000056e1      0x2a5 Middlewares/Third_Party/FreeRTOS/Source/list.o
 .debug_info    0x00005986     0x1678 Middlewares/Third_Party/FreeRTOS/Source/queue.o
 .debug_info    0x00006ffe     0x270b Middlewares/Third_Party/FreeRTOS/Source/tasks.o
 .debug_info    0x00009709      0x55b Middlewares/Third_Party/FreeRTOS/Source/portable/GCC/ARM_CM4F/port.o
 .debug_info    0x00009c64      0x48a Middlewares/Third_Party/FreeRTOS/Source/portable/MemMang/heap_4.o
 .debug_info    0x0000a0ee      0xfdc Src/main.o
 .debug_info    0x0000b0ca      0x3f4 Src/stm32f4xx_hal_msp.o
 .debug_info    0x0000b4be       0xeb Src/stm32f4xx_it.o

.debug_abbrev   0x00000000     0x210f
 .debug_abbrev  0x00000000       0x12 Drivers/CMSIS/Device/ST/STM32F4xx/Source/Templates/gcc/startup_stm32f407xx.o
 .debug_abbrev  0x00000012      0x104 Drivers/CMSIS/Device/ST/STM32F4xx/Source/Templates/system_stm32f4xx.o
 .debug_abbrev  0x00000116      0x247 Drivers/STM32F4xx_HAL_Driver/Src/stm32f4xx_hal.o
 .debug_abbrev  0x0000035d      0x332 Drivers/STM32F4xx_HAL_Driver/Src/stm32f4xx_hal_cortex.o
 .debug_abbrev  0x0000068f      0x1cb Drivers/STM32F4xx_HAL_Driver/Src/stm32f4xx_hal_gpio.o
 .debug_abbrev  0x0000085a      0x321 Drivers/STM32F4xx_HAL_Driver/Src/stm32f4xx_hal_rcc.o
 .debug_abbrev  0x00000b7b      0x387 Middlewares/Third_Party/FreeRTOS/Source/CMSIS_RTOS/cmsis_os.o
 .debug_abbrev  0x00000f02      0x28d Middlewares/Third_Party/FreeRTOS/Source/event_groups.o
 .debug_abbrev  0x0000118f       0xdf Middlewares/Third_Party/FreeRTOS/Source/list.o
 .debug_abbrev  0x0000126e      0x2d3 Middlewares/Third_Party/FreeRTOS/Source/queue.o
 .debug_abbrev  0x00001541      0x395 Middlewares/Third_Party/FreeRTOS/Source/tasks.o
 .debug_abbrev  0x000018d6      0x21e Middlewares/Third_Party/FreeRTOS/Source/portable/GCC/ARM_CM4F/port.o
 .debug_abbrev  0x00001af4      0x233 Middlewares/Third_Party/FreeRTOS/Source/portable/MemMang/heap_4.o
 .debug_abbrev  0x00001d27      0x27c Src/main.o
 .debug_abbrev  0x00001fa3       0xc5 Src/stm32f4xx_hal_msp.o
 .debug_abbrev  0x00002068       0xa7 Src/stm32f4xx_it.o

.debug_aranges  0x00000000      0x840
 .debug_aranges
                0x00000000       0x28 Drivers/CMSIS/Device/ST/STM32F4xx/Source/Templates/gcc/startup_stm32f407xx.o
 .debug_aranges
                0x00000028       0x28 Drivers/CMSIS/Device/ST/STM32F4xx/Source/Templates/system_stm32f4xx.o
 .debug_aranges
                0x00000050       0xb8 Drivers/STM32F4xx_HAL_Driver/Src/stm32f4xx_hal.o
 .debug_aranges
                0x00000108       0x98 Drivers/STM32F4xx_HAL_Driver/Src/stm32f4xx_hal_cortex.o
 .debug_aranges
                0x000001a0       0x58 Drivers/STM32F4xx_HAL_Driver/Src/stm32f4xx_hal_gpio.o
 .debug_aranges
                0x000001f8       0x80 Drivers/STM32F4xx_HAL_Driver/Src/stm32f4xx_hal_rcc.o
 .debug_aranges
                0x00000278      0x178 Middlewares/Third_Party/FreeRTOS/Source/CMSIS_RTOS/cmsis_os.o
 .debug_aranges
                0x000003f0       0x68 Middlewares/Third_Party/FreeRTOS/Source/event_groups.o
 .debug_aranges
                0x00000458       0x40 Middlewares/Third_Party/FreeRTOS/Source/list.o
 .debug_aranges
                0x00000498       0xd0 Middlewares/Third_Party/FreeRTOS/Source/queue.o
 .debug_aranges
                0x00000568      0x190 Middlewares/Third_Party/FreeRTOS/Source/tasks.o
 .debug_aranges
                0x000006f8       0x80 Middlewares/Third_Party/FreeRTOS/Source/portable/GCC/ARM_CM4F/port.o
 .debug_aranges
                0x00000778       0x48 Middlewares/Third_Party/FreeRTOS/Source/portable/MemMang/heap_4.o
 .debug_aranges
                0x000007c0       0x40 Src/main.o
 .debug_aranges
                0x00000800       0x20 Src/stm32f4xx_hal_msp.o
 .debug_aranges
                0x00000820       0x20 Src/stm32f4xx_it.o

.debug_ranges   0x00000000      0xa60
 .debug_ranges  0x00000000       0x20 Drivers/CMSIS/Device/ST/STM32F4xx/Source/Templates/gcc/startup_stm32f407xx.o
 .debug_ranges  0x00000020       0x18 Drivers/CMSIS/Device/ST/STM32F4xx/Source/Templates/system_stm32f4xx.o
 .debug_ranges  0x00000038       0xa8 Drivers/STM32F4xx_HAL_Driver/Src/stm32f4xx_hal.o
 .debug_ranges  0x000000e0      0x148 Drivers/STM32F4xx_HAL_Driver/Src/stm32f4xx_hal_cortex.o
 .debug_ranges  0x00000228       0x70 Drivers/STM32F4xx_HAL_Driver/Src/stm32f4xx_hal_gpio.o
 .debug_ranges  0x00000298      0x150 Drivers/STM32F4xx_HAL_Driver/Src/stm32f4xx_hal_rcc.o
 .debug_ranges  0x000003e8      0x180 Middlewares/Third_Party/FreeRTOS/Source/CMSIS_RTOS/cmsis_os.o
 .debug_ranges  0x00000568       0x88 Middlewares/Third_Party/FreeRTOS/Source/event_groups.o
 .debug_ranges  0x000005f0       0x30 Middlewares/Third_Party/FreeRTOS/Source/list.o
 .debug_ranges  0x00000620       0xc0 Middlewares/Third_Party/FreeRTOS/Source/queue.o
 .debug_ranges  0x000006e0      0x218 Middlewares/Third_Party/FreeRTOS/Source/tasks.o
 .debug_ranges  0x000008f8       0x70 Middlewares/Third_Party/FreeRTOS/Source/portable/GCC/ARM_CM4F/port.o
 .debug_ranges  0x00000968       0x38 Middlewares/Third_Party/FreeRTOS/Source/portable/MemMang/heap_4.o
 .debug_ranges  0x000009a0       0xa0 Src/main.o
 .debug_ranges  0x00000a40       0x10 Src/stm32f4xx_hal_msp.o
 .debug_ranges  0x00000a50       0x10 Src/stm32f4xx_it.o

.debug_loc      0x00000000     0x4d1e
 .debug_loc     0x00000000       0xd7 Drivers/CMSIS/Device/ST/STM32F4xx/Source/Templates/system_stm32f4xx.o
 .debug_loc     0x000000d7       0x92 Drivers/STM32F4xx_HAL_Driver/Src/stm32f4xx_hal.o
 .debug_loc     0x00000169      0x4ab Drivers/STM32F4xx_HAL_Driver/Src/stm32f4xx_hal_cortex.o
 .debug_loc     0x00000614      0x374 Drivers/STM32F4xx_HAL_Driver/Src/stm32f4xx_hal_gpio.o
 .debug_loc     0x00000988      0x49b Drivers/STM32F4xx_HAL_Driver/Src/stm32f4xx_hal_rcc.o
 .debug_loc     0x00000e23      0xf73 Middlewares/Third_Party/FreeRTOS/Source/CMSIS_RTOS/cmsis_os.o
 .debug_loc     0x00001d96      0x80b Middlewares/Third_Party/FreeRTOS/Source/event_groups.o
 .debug_loc     0x000025a1       0x94 Middlewares/Third_Party/FreeRTOS/Source/list.o
 .debug_loc     0x00002635      0xa46 Middlewares/Third_Party/FreeRTOS/Source/queue.o
 .debug_loc     0x0000307b     0x182a Middlewares/Third_Party/FreeRTOS/Source/tasks.o
 .debug_loc     0x000048a5       0xae Middlewares/Third_Party/FreeRTOS/Source/portable/GCC/ARM_CM4F/port.o
 .debug_loc     0x00004953      0x389 Middlewares/Third_Party/FreeRTOS/Source/portable/MemMang/heap_4.o
 .debug_loc     0x00004cdc       0x42 Src/main.o

.debug_macro    0x00000000    0x148ad
 .debug_macro   0x00000000      0x2c1 Drivers/CMSIS/Device/ST/STM32F4xx/Source/Templates/system_stm32f4xx.o
 .debug_macro   0x000002c1      0x89e Drivers/CMSIS/Device/ST/STM32F4xx/Source/Templates/system_stm32f4xx.o
 .debug_macro   0x00000b5f       0x31 Drivers/CMSIS/Device/ST/STM32F4xx/Source/Templates/system_stm32f4xx.o
 .debug_macro   0x00000b90       0x28 Drivers/CMSIS/Device/ST/STM32F4xx/Source/Templates/system_stm32f4xx.o
 .debug_macro   0x00000bb8       0x22 Drivers/CMSIS/Device/ST/STM32F4xx/Source/Templates/system_stm32f4xx.o
 .debug_macro   0x00000bda       0x44 Drivers/CMSIS/Device/ST/STM32F4xx/Source/Templates/system_stm32f4xx.o
 .debug_macro   0x00000c1e       0xfd Drivers/CMSIS/Device/ST/STM32F4xx/Source/Templates/system_stm32f4xx.o
 .debug_macro   0x00000d1b       0x22 Drivers/CMSIS/Device/ST/STM32F4xx/Source/Templates/system_stm32f4xx.o
 .debug_macro   0x00000d3d      0x1df Drivers/CMSIS/Device/ST/STM32F4xx/Source/Templates/system_stm32f4xx.o
 .debug_macro   0x00000f1c       0x35 Drivers/CMSIS/Device/ST/STM32F4xx/Source/Templates/system_stm32f4xx.o
 .debug_macro   0x00000f51       0x50 Drivers/CMSIS/Device/ST/STM32F4xx/Source/Templates/system_stm32f4xx.o
 .debug_macro   0x00000fa1      0xe66 Drivers/CMSIS/Device/ST/STM32F4xx/Source/Templates/system_stm32f4xx.o
 .debug_macro   0x00001e07     0x93f9 Drivers/CMSIS/Device/ST/STM32F4xx/Source/Templates/system_stm32f4xx.o
 .debug_macro   0x0000b200       0x43 Drivers/CMSIS/Device/ST/STM32F4xx/Source/Templates/system_stm32f4xx.o
 .debug_macro   0x0000b243      0x142 Drivers/CMSIS/Device/ST/STM32F4xx/Source/Templates/system_stm32f4xx.o
 .debug_macro   0x0000b385      0x1a4 Drivers/CMSIS/Device/ST/STM32F4xx/Source/Templates/system_stm32f4xx.o
 .debug_macro   0x0000b529     0x347f Drivers/CMSIS/Device/ST/STM32F4xx/Source/Templates/system_stm32f4xx.o
 .debug_macro   0x0000e9a8       0x58 Drivers/CMSIS/Device/ST/STM32F4xx/Source/Templates/system_stm32f4xx.o
 .debug_macro   0x0000ea00       0x35 Drivers/CMSIS/Device/ST/STM32F4xx/Source/Templates/system_stm32f4xx.o
 .debug_macro   0x0000ea35       0x9c Drivers/CMSIS/Device/ST/STM32F4xx/Source/Templates/system_stm32f4xx.o
 .debug_macro   0x0000ead1       0x16 Drivers/CMSIS/Device/ST/STM32F4xx/Source/Templates/system_stm32f4xx.o
 .debug_macro   0x0000eae7       0x97 Drivers/CMSIS/Device/ST/STM32F4xx/Source/Templates/system_stm32f4xx.o
 .debug_macro   0x0000eb7e      0x329 Drivers/CMSIS/Device/ST/STM32F4xx/Source/Templates/system_stm32f4xx.o
 .debug_macro   0x0000eea7       0xfd Drivers/CMSIS/Device/ST/STM32F4xx/Source/Templates/system_stm32f4xx.o
 .debug_macro   0x0000efa4       0x10 Drivers/CMSIS/Device/ST/STM32F4xx/Source/Templates/system_stm32f4xx.o
 .debug_macro   0x0000efb4       0x52 Drivers/CMSIS/Device/ST/STM32F4xx/Source/Templates/system_stm32f4xx.o
 .debug_macro   0x0000f006       0x16 Drivers/CMSIS/Device/ST/STM32F4xx/Source/Templates/system_stm32f4xx.o
 .debug_macro   0x0000f01c       0x43 Drivers/CMSIS/Device/ST/STM32F4xx/Source/Templates/system_stm32f4xx.o
 .debug_macro   0x0000f05f      0x187 Drivers/CMSIS/Device/ST/STM32F4xx/Source/Templates/system_stm32f4xx.o
 .debug_macro   0x0000f1e6       0x10 Drivers/CMSIS/Device/ST/STM32F4xx/Source/Templates/system_stm32f4xx.o
 .debug_macro   0x0000f1f6       0x22 Drivers/CMSIS/Device/ST/STM32F4xx/Source/Templates/system_stm32f4xx.o
 .debug_macro   0x0000f218       0x3a Drivers/CMSIS/Device/ST/STM32F4xx/Source/Templates/system_stm32f4xx.o
 .debug_macro   0x0000f252       0x10 Drivers/CMSIS/Device/ST/STM32F4xx/Source/Templates/system_stm32f4xx.o
 .debug_macro   0x0000f262       0x40 Drivers/CMSIS/Device/ST/STM32F4xx/Source/Templates/system_stm32f4xx.o
 .debug_macro   0x0000f2a2       0x65 Drivers/CMSIS/Device/ST/STM32F4xx/Source/Templates/system_stm32f4xx.o
 .debug_macro   0x0000f307       0x16 Drivers/CMSIS/Device/ST/STM32F4xx/Source/Templates/system_stm32f4xx.o
 .debug_macro   0x0000f31d      0x197 Drivers/CMSIS/Device/ST/STM32F4xx/Source/Templates/system_stm32f4xx.o
 .debug_macro   0x0000f4b4       0x50 Drivers/CMSIS/Device/ST/STM32F4xx/Source/Templates/system_stm32f4xx.o
 .debug_macro   0x0000f504      0x964 Drivers/CMSIS/Device/ST/STM32F4xx/Source/Templates/system_stm32f4xx.o
 .debug_macro   0x0000fe68      0x9e1 Drivers/CMSIS/Device/ST/STM32F4xx/Source/Templates/system_stm32f4xx.o
 .debug_macro   0x00010849      0x11e Drivers/CMSIS/Device/ST/STM32F4xx/Source/Templates/system_stm32f4xx.o
 .debug_macro   0x00010967      0x13e Drivers/CMSIS/Device/ST/STM32F4xx/Source/Templates/system_stm32f4xx.o
 .debug_macro   0x00010aa5       0x27 Drivers/CMSIS/Device/ST/STM32F4xx/Source/Templates/system_stm32f4xx.o
 .debug_macro   0x00010acc      0x287 Drivers/CMSIS/Device/ST/STM32F4xx/Source/Templates/system_stm32f4xx.o
 .debug_macro   0x00010d53       0x5f Drivers/CMSIS/Device/ST/STM32F4xx/Source/Templates/system_stm32f4xx.o
 .debug_macro   0x00010db2      0x23a Drivers/CMSIS/Device/ST/STM32F4xx/Source/Templates/system_stm32f4xx.o
 .debug_macro   0x00010fec      0x13a Drivers/CMSIS/Device/ST/STM32F4xx/Source/Templates/system_stm32f4xx.o
 .debug_macro   0x00011126      0x21e Drivers/CMSIS/Device/ST/STM32F4xx/Source/Templates/system_stm32f4xx.o
 .debug_macro   0x00011344       0x2e Drivers/CMSIS/Device/ST/STM32F4xx/Source/Templates/system_stm32f4xx.o
 .debug_macro   0x00011372      0x11e Drivers/CMSIS/Device/ST/STM32F4xx/Source/Templates/system_stm32f4xx.o
 .debug_macro   0x00011490       0x7f Drivers/CMSIS/Device/ST/STM32F4xx/Source/Templates/system_stm32f4xx.o
 .debug_macro   0x0001150f       0x89 Drivers/CMSIS/Device/ST/STM32F4xx/Source/Templates/system_stm32f4xx.o
 .debug_macro   0x00011598      0x125 Drivers/CMSIS/Device/ST/STM32F4xx/Source/Templates/system_stm32f4xx.o
 .debug_macro   0x000116bd      0x309 Drivers/STM32F4xx_HAL_Driver/Src/stm32f4xx_hal.o
 .debug_macro   0x000119c6      0x2bb Drivers/STM32F4xx_HAL_Driver/Src/stm32f4xx_hal_cortex.o
 .debug_macro   0x00011c81      0x2f3 Drivers/STM32F4xx_HAL_Driver/Src/stm32f4xx_hal_gpio.o
 .debug_macro   0x00011f74      0x2e5 Drivers/STM32F4xx_HAL_Driver/Src/stm32f4xx_hal_rcc.o
 .debug_macro   0x00012259      0x1d7 Middlewares/Third_Party/FreeRTOS/Source/CMSIS_RTOS/cmsis_os.o
 .debug_macro   0x00012430      0x174 Middlewares/Third_Party/FreeRTOS/Source/CMSIS_RTOS/cmsis_os.o
 .debug_macro   0x000125a4       0x4a Middlewares/Third_Party/FreeRTOS/Source/CMSIS_RTOS/cmsis_os.o
 .debug_macro   0x000125ee       0x10 Middlewares/Third_Party/FreeRTOS/Source/CMSIS_RTOS/cmsis_os.o
 .debug_macro   0x000125fe       0x35 Middlewares/Third_Party/FreeRTOS/Source/CMSIS_RTOS/cmsis_os.o
 .debug_macro   0x00012633       0x16 Middlewares/Third_Party/FreeRTOS/Source/CMSIS_RTOS/cmsis_os.o
 .debug_macro   0x00012649       0x26 Middlewares/Third_Party/FreeRTOS/Source/CMSIS_RTOS/cmsis_os.o
 .debug_macro   0x0001266f       0xc6 Middlewares/Third_Party/FreeRTOS/Source/CMSIS_RTOS/cmsis_os.o
 .debug_macro   0x00012735      0x15d Middlewares/Third_Party/FreeRTOS/Source/CMSIS_RTOS/cmsis_os.o
 .debug_macro   0x00012892       0xe4 Middlewares/Third_Party/FreeRTOS/Source/CMSIS_RTOS/cmsis_os.o
 .debug_macro   0x00012976       0x10 Middlewares/Third_Party/FreeRTOS/Source/CMSIS_RTOS/cmsis_os.o
 .debug_macro   0x00012986       0x1f Middlewares/Third_Party/FreeRTOS/Source/CMSIS_RTOS/cmsis_os.o
 .debug_macro   0x000129a5      0x3f4 Middlewares/Third_Party/FreeRTOS/Source/CMSIS_RTOS/cmsis_os.o
 .debug_macro   0x00012d99       0xc0 Middlewares/Third_Party/FreeRTOS/Source/CMSIS_RTOS/cmsis_os.o
 .debug_macro   0x00012e59       0x9a Middlewares/Third_Party/FreeRTOS/Source/CMSIS_RTOS/cmsis_os.o
 .debug_macro   0x00012ef3       0x91 Middlewares/Third_Party/FreeRTOS/Source/CMSIS_RTOS/cmsis_os.o
 .debug_macro   0x00012f84       0xb0 Middlewares/Third_Party/FreeRTOS/Source/CMSIS_RTOS/cmsis_os.o
 .debug_macro   0x00013034       0x7f Middlewares/Third_Party/FreeRTOS/Source/CMSIS_RTOS/cmsis_os.o
 .debug_macro   0x000130b3       0xcf Middlewares/Third_Party/FreeRTOS/Source/CMSIS_RTOS/cmsis_os.o
 .debug_macro   0x00013182      0x1d1 Middlewares/Third_Party/FreeRTOS/Source/event_groups.o
 .debug_macro   0x00013353       0x16 Middlewares/Third_Party/FreeRTOS/Source/event_groups.o
 .debug_macro   0x00013369      0x10e Middlewares/Third_Party/FreeRTOS/Source/event_groups.o
 .debug_macro   0x00013477       0x8d Middlewares/Third_Party/FreeRTOS/Source/event_groups.o
 .debug_macro   0x00013504       0x16 Middlewares/Third_Party/FreeRTOS/Source/event_groups.o
 .debug_macro   0x0001351a       0x29 Middlewares/Third_Party/FreeRTOS/Source/event_groups.o
 .debug_macro   0x00013543      0x176 Middlewares/Third_Party/FreeRTOS/Source/list.o
 .debug_macro   0x000136b9      0x1e8 Middlewares/Third_Party/FreeRTOS/Source/queue.o
 .debug_macro   0x000138a1       0x16 Middlewares/Third_Party/FreeRTOS/Source/queue.o
 .debug_macro   0x000138b7      0x224 Middlewares/Third_Party/FreeRTOS/Source/tasks.o
 .debug_macro   0x00013adb       0x11 Middlewares/Third_Party/FreeRTOS/Source/tasks.o
 .debug_macro   0x00013aec      0x197 Middlewares/Third_Party/FreeRTOS/Source/portable/GCC/ARM_CM4F/port.o
 .debug_macro   0x00013c83      0x19d Middlewares/Third_Party/FreeRTOS/Source/portable/MemMang/heap_4.o
 .debug_macro   0x00013e20      0x37e Src/main.o
 .debug_macro   0x0001419e       0xcc Src/main.o
 .debug_macro   0x0001426a      0x2bb Src/stm32f4xx_hal_msp.o
 .debug_macro   0x00014525      0x388 Src/stm32f4xx_it.o

.debug_str      0x00000000    0x6ebb5
 .debug_str     0x00000000    0x65279 Drivers/CMSIS/Device/ST/STM32F4xx/Source/Templates/system_stm32f4xx.o
                              0x6552a (size before relaxing)
 .debug_str     0x00065279      0x9e3 Drivers/STM32F4xx_HAL_Driver/Src/stm32f4xx_hal.o
                              0x65ef1 (size before relaxing)
 .debug_str     0x00065c5c      0x31a Drivers/STM32F4xx_HAL_Driver/Src/stm32f4xx_hal_cortex.o
                              0x65d5c (size before relaxing)
 .debug_str     0x00065f76      0x2f2 Drivers/STM32F4xx_HAL_Driver/Src/stm32f4xx_hal_gpio.o
                              0x65781 (size before relaxing)
 .debug_str     0x00066268      0x37d Drivers/STM32F4xx_HAL_Driver/Src/stm32f4xx_hal_rcc.o
                              0x65910 (size before relaxing)
 .debug_str     0x000665e5     0x5f9e Middlewares/Third_Party/FreeRTOS/Source/CMSIS_RTOS/cmsis_os.o
                               0xc24b (size before relaxing)
 .debug_str     0x0006c583      0x598 Middlewares/Third_Party/FreeRTOS/Source/event_groups.o
                               0xa5d1 (size before relaxing)
 .debug_str     0x0006cb1b       0xaf Middlewares/Third_Party/FreeRTOS/Source/list.o
                               0x91ef (size before relaxing)
 .debug_str     0x0006cbca      0x6ad Middlewares/Third_Party/FreeRTOS/Source/queue.o
                               0xabc7 (size before relaxing)
 .debug_str     0x0006d277      0xe4f Middlewares/Third_Party/FreeRTOS/Source/tasks.o
                               0xb3e6 (size before relaxing)
 .debug_str     0x0006e0c6      0x744 Middlewares/Third_Party/FreeRTOS/Source/portable/GCC/ARM_CM4F/port.o
                               0x794d (size before relaxing)
 .debug_str     0x0006e80a      0x243 Middlewares/Third_Party/FreeRTOS/Source/portable/MemMang/heap_4.o
                               0x9ae1 (size before relaxing)
 .debug_str     0x0006ea4d      0x109 Src/main.o
                              0x6b42f (size before relaxing)
 .debug_str     0x0006eb56       0x27 Src/stm32f4xx_hal_msp.o
                              0x6585c (size before relaxing)
 .debug_str     0x0006eb7d       0x38 Src/stm32f4xx_it.o
                              0x6a8e6 (size before relaxing)

.comment        0x00000000       0x6e
 .comment       0x00000000       0x6e Drivers/CMSIS/Device/ST/STM32F4xx/Source/Templates/system_stm32f4xx.o
                                 0x6f (size before relaxing)
 .comment       0x0000006e       0x6f Drivers/STM32F4xx_HAL_Driver/Src/stm32f4xx_hal.o
 .comment       0x0000006e       0x6f Drivers/STM32F4xx_HAL_Driver/Src/stm32f4xx_hal_cortex.o
 .comment       0x0000006e       0x6f Drivers/STM32F4xx_HAL_Driver/Src/stm32f4xx_hal_gpio.o
 .comment       0x0000006e       0x6f Drivers/STM32F4xx_HAL_Driver/Src/stm32f4xx_hal_rcc.o
 .comment       0x0000006e       0x6f Middlewares/Third_Party/FreeRTOS/Source/CMSIS_RTOS/cmsis_os.o
 .comment       0x0000006e       0x6f Middlewares/Third_Party/FreeRTOS/Source/event_groups.o
 .comment       0x0000006e       0x6f Middlewares/Third_Party/FreeRTOS/Source/list.o
 .comment       0x0000006e       0x6f Middlewares/Third_Party/FreeRTOS/Source/queue.o
 .comment       0x0000006e       0x6f Middlewares/Third_Party/FreeRTOS/Source/tasks.o
 .comment       0x0000006e       0x6f Middlewares/Third_Party/FreeRTOS/Source/portable/GCC/ARM_CM4F/port.o
 .comment       0x0000006e       0x6f Middlewares/Third_Party/FreeRTOS/Source/portable/MemMang/heap_4.o
 .comment       0x0000006e       0x6f Src/main.o
 .comment       0x0000006e       0x6f Src/stm32f4xx_hal_msp.o
 .comment       0x0000006e       0x6f Src/stm32f4xx_it.o

.debug_frame    0x00000000     0x15b0
 .debug_frame   0x00000000       0x30 Drivers/CMSIS/Device/ST/STM32F4xx/Source/Templates/system_stm32f4xx.o
 .debug_frame   0x00000030      0x184 Drivers/STM32F4xx_HAL_Driver/Src/stm32f4xx_hal.o
 .debug_frame   0x000001b4      0x130 Drivers/STM32F4xx_HAL_Driver/Src/stm32f4xx_hal_cortex.o
 .debug_frame   0x000002e4       0xd4 Drivers/STM32F4xx_HAL_Driver/Src/stm32f4xx_hal_gpio.o
 .debug_frame   0x000003b8      0x138 Drivers/STM32F4xx_HAL_Driver/Src/stm32f4xx_hal_rcc.o
 .debug_frame   0x000004f0      0x460 Middlewares/Third_Party/FreeRTOS/Source/CMSIS_RTOS/cmsis_os.o
 .debug_frame   0x00000950      0x10c Middlewares/Third_Party/FreeRTOS/Source/event_groups.o
 .debug_frame   0x00000a5c       0x6c Middlewares/Third_Party/FreeRTOS/Source/list.o
 .debug_frame   0x00000ac8      0x270 Middlewares/Third_Party/FreeRTOS/Source/queue.o
 .debug_frame   0x00000d38      0x57c Middlewares/Third_Party/FreeRTOS/Source/tasks.o
 .debug_frame   0x000012b4       0xf0 Middlewares/Third_Party/FreeRTOS/Source/portable/GCC/ARM_CM4F/port.o
 .debug_frame   0x000013a4       0xa4 Middlewares/Third_Party/FreeRTOS/Source/portable/MemMang/heap_4.o
 .debug_frame   0x00001448       0x9c Src/main.o
 .debug_frame   0x000014e4       0x2c Src/stm32f4xx_hal_msp.o
 .debug_frame   0x00001510       0x2c Src/stm32f4xx_it.o
 .debug_frame   0x0000153c       0x2c /opt/stsdk/plugins/fr.ac6.mcu.externaltools.arm-none.linux32_1.7.0.201602291259/tools/compiler/bin/../lib/gcc/arm-none-eabi/5.2.1/../../../../arm-none-eabi/lib/armv7e-m/fpu/libc_nano.a(lib_a-init.o)
 .debug_frame   0x00001568       0x28 /opt/stsdk/plugins/fr.ac6.mcu.externaltools.arm-none.linux32_1.7.0.201602291259/tools/compiler/bin/../lib/gcc/arm-none-eabi/5.2.1/../../../../arm-none-eabi/lib/armv7e-m/fpu/libc_nano.a(lib_a-memcpy-stub.o)
 .debug_frame   0x00001590       0x20 /opt/stsdk/plugins/fr.ac6.mcu.externaltools.arm-none.linux32_1.7.0.201602291259/tools/compiler/bin/../lib/gcc/arm-none-eabi/5.2.1/../../../../arm-none-eabi/lib/armv7e-m/fpu/libc_nano.a(lib_a-memset.o)
